:060000000A128A110C280F
:10000800FE00030EF0000A08F1000A128A1188287F
:100018000A128A110F2883010A128A1113280A1258
:100028008A114F200A128A118312031386191D2878
:100038001E282928343099008230F300DD30F20080
:10004800F20B2428F30B242829288312031386187B
:100058002E282F283A28353099008230F300DD30D9
:10006800F200F20B3528F30B35283A2883120313D4
:1000780006193F2840281828363099008230F300A6
:10008800DD30F200F20B4628F30B46284B281828DF
:100098000A128A110C28831603178801890183160E
:1000A80003130F088F3960388F000F1480308700D2
:1000B8008312031387010F308316031386008312FC
:1000C800031386018316031381130F3095000F3035
:1000D800960083120313060886008316031318126A
:1000E80018158316031787156730831603139900AD
:1000F8009A0183120313981783160313181398167B
:10010800831203131816080071088A00700E830002
:06011800FE0E7E0E090040
:08400000FF3FFF3FFF3FFF3FC0
:04400E00D420FF3F7C
:00000001FF
